{
  "_format": "hh-sol-artifact-1",
  "contractName": "TodoList",
  "sourceName": "contracts/ToDoList.sol",
  "abi": [
    {
      "inputs": [
        {
          "internalType": "string",
          "name": "_text",
          "type": "string"
        }
      ],
      "name": "create",
      "outputs": [],
      "stateMutability": "nonpayable",
      "type": "function"
    },
    {
      "inputs": [
        {
          "internalType": "uint256",
          "name": "_index",
          "type": "uint256"
        }
      ],
      "name": "get",
      "outputs": [
        {
          "internalType": "string",
          "name": "text",
          "type": "string"
        },
        {
          "internalType": "bool",
          "name": "completed",
          "type": "bool"
        }
      ],
      "stateMutability": "view",
      "type": "function"
    },
    {
      "inputs": [],
      "name": "getTotalTasks",
      "outputs": [
        {
          "internalType": "uint256",
          "name": "",
          "type": "uint256"
        }
      ],
      "stateMutability": "view",
      "type": "function"
    },
    {
      "inputs": [
        {
          "internalType": "uint256",
          "name": "",
          "type": "uint256"
        }
      ],
      "name": "todoList",
      "outputs": [
        {
          "internalType": "string",
          "name": "text",
          "type": "string"
        },
        {
          "internalType": "bool",
          "name": "completed",
          "type": "bool"
        }
      ],
      "stateMutability": "view",
      "type": "function"
    },
    {
      "inputs": [
        {
          "internalType": "uint256",
          "name": "_index",
          "type": "uint256"
        }
      ],
      "name": "toggleCompleted",
      "outputs": [],
      "stateMutability": "nonpayable",
      "type": "function"
    },
    {
      "inputs": [
        {
          "internalType": "uint256",
          "name": "_index",
          "type": "uint256"
        },
        {
          "internalType": "string",
          "name": "_text",
          "type": "string"
        }
      ],
      "name": "updateText",
      "outputs": [],
      "stateMutability": "nonpayable",
      "type": "function"
    }
  ],
  "bytecode": "0x6080604052348015600f57600080fd5b50610c4f8061001f6000396000f3fe608060405234801561001057600080fd5b50600436106100625760003560e01c80633c93b90514610067578063455f50241461008557806358c2d469146100a15780639507d39a146100d2578063b6a46b3b14610103578063cd1116141461011f575b600080fd5b61006f61013b565b60405161007c919061052b565b60405180910390f35b61009f600480360381019061009a919061057c565b610147565b005b6100bb60048036038101906100b6919061057c565b6101e5565b6040516100c9929190610654565b60405180910390f35b6100ec60048036038101906100e7919061057c565b6102ae565b6040516100fa929190610654565b60405180910390f35b61011d600480360381019061011891906106e9565b6103c9565b005b61013960048036038101906101349190610736565b61048c565b005b60008080549050905090565b600080549050811061018e576040517f08c379a0000000000000000000000000000000000000000000000000000000008152600401610185906107e2565b60405180910390fd5b60008082815481106101a3576101a2610802565b5b906000526020600020906002020190508060010160009054906101000a900460ff16158160010160006101000a81548160ff0219169083151502179055505050565b600081815481106101f557600080fd5b906000526020600020906002020160009150905080600001805461021890610860565b80601f016020809104026020016040519081016040528092919081815260200182805461024490610860565b80156102915780601f1061026657610100808354040283529160200191610291565b820191906000526020600020905b81548152906001019060200180831161027457829003601f168201915b5050505050908060010160009054906101000a900460ff16905082565b60606000808054905083106102f8576040517f08c379a00000000000000000000000000000000000000000000000000000000081526004016102ef906107e2565b60405180910390fd5b600080848154811061030d5761030c610802565b5b90600052602060002090600202019050806000018160010160009054906101000a900460ff1681805461033f90610860565b80601f016020809104026020016040519081016040528092919081815260200182805461036b90610860565b80156103b85780601f1061038d576101008083540402835291602001916103b8565b820191906000526020600020905b81548152906001019060200180831161039b57829003601f168201915b505050505091509250925050915091565b6000604051806040016040528084848080601f016020809104026020016040519081016040528093929190818152602001838380828437600081840152601f19601f82011690508083019250505050505050815260200160001515815250908060018154018082558091505060019003906000526020600020906002020160009091909190915060008201518160000190816104659190610a6c565b5060208201518160010160006101000a81548160ff02191690831515021790555050505050565b60008054905083106104d3576040517f08c379a00000000000000000000000000000000000000000000000000000000081526004016104ca906107e2565b60405180910390fd5b60008084815481106104e8576104e7610802565b5b90600052602060002090600202019050828282600001918261050b929190610b49565b5050505050565b6000819050919050565b61052581610512565b82525050565b6000602082019050610540600083018461051c565b92915050565b600080fd5b600080fd5b61055981610512565b811461056457600080fd5b50565b60008135905061057681610550565b92915050565b60006020828403121561059257610591610546565b5b60006105a084828501610567565b91505092915050565b600081519050919050565b600082825260208201905092915050565b60005b838110156105e35780820151818401526020810190506105c8565b60008484015250505050565b6000601f19601f8301169050919050565b600061060b826105a9565b61061581856105b4565b93506106258185602086016105c5565b61062e816105ef565b840191505092915050565b60008115159050919050565b61064e81610639565b82525050565b6000604082019050818103600083015261066e8185610600565b905061067d6020830184610645565b9392505050565b600080fd5b600080fd5b600080fd5b60008083601f8401126106a9576106a8610684565b5b8235905067ffffffffffffffff8111156106c6576106c5610689565b5b6020830191508360018202830111156106e2576106e161068e565b5b9250929050565b60008060208385031215610700576106ff610546565b5b600083013567ffffffffffffffff81111561071e5761071d61054b565b5b61072a85828601610693565b92509250509250929050565b60008060006040848603121561074f5761074e610546565b5b600061075d86828701610567565b935050602084013567ffffffffffffffff81111561077e5761077d61054b565b5b61078a86828701610693565b92509250509250925092565b7f496e646578206f7574206f6620626f756e647300000000000000000000000000600082015250565b60006107cc6013836105b4565b91506107d782610796565b602082019050919050565b600060208201905081810360008301526107fb816107bf565b9050919050565b7f4e487b7100000000000000000000000000000000000000000000000000000000600052603260045260246000fd5b7f4e487b7100000000000000000000000000000000000000000000000000000000600052602260045260246000fd5b6000600282049050600182168061087857607f821691505b60208210810361088b5761088a610831565b5b50919050565b7f4e487b7100000000000000000000000000000000000000000000000000000000600052604160045260246000fd5b60008190508160005260206000209050919050565b60006020601f8301049050919050565b600082821b905092915050565b6000600883026109227fffffffffffffffffffffffffffffffffffffffffffffffffffffffffffffffff826108e5565b61092c86836108e5565b95508019841693508086168417925050509392505050565b6000819050919050565b600061096961096461095f84610512565b610944565b610512565b9050919050565b6000819050919050565b6109838361094e565b61099761098f82610970565b8484546108f2565b825550505050565b600090565b6109ac61099f565b6109b781848461097a565b505050565b5b818110156109db576109d06000826109a4565b6001810190506109bd565b5050565b601f821115610a20576109f1816108c0565b6109fa846108d5565b81016020851015610a09578190505b610a1d610a15856108d5565b8301826109bc565b50505b505050565b600082821c905092915050565b6000610a4360001984600802610a25565b1980831691505092915050565b6000610a5c8383610a32565b9150826002028217905092915050565b610a75826105a9565b67ffffffffffffffff811115610a8e57610a8d610891565b5b610a988254610860565b610aa38282856109df565b600060209050601f831160018114610ad65760008415610ac4578287015190505b610ace8582610a50565b865550610b36565b601f198416610ae4866108c0565b60005b82811015610b0c57848901518255600182019150602085019450602081019050610ae7565b86831015610b295784890151610b25601f891682610a32565b8355505b6001600288020188555050505b505050505050565b600082905092915050565b610b538383610b3e565b67ffffffffffffffff811115610b6c57610b6b610891565b5b610b768254610860565b610b818282856109df565b6000601f831160018114610bb05760008415610b9e578287013590505b610ba88582610a50565b865550610c10565b601f198416610bbe866108c0565b60005b82811015610be657848901358255600182019150602085019450602081019050610bc1565b86831015610c035784890135610bff601f891682610a32565b8355505b6001600288020188555050505b5050505050505056fea26469706673582212200e6eb1f00acff6c6d41e61497ced163d9460b97d24884d0860192bde327ff7c364736f6c634300081c0033",
  "linkReferences": {},
  "deployedLinkReferences": {}
}